{
  "contractName": "VotingSystem",
  "abi": [
    {
      "inputs": [],
      "stateMutability": "nonpayable",
      "type": "constructor"
    },
    {
      "anonymous": false,
      "inputs": [
        {
          "indexed": false,
          "internalType": "string",
          "name": "name",
          "type": "string"
        },
        {
          "indexed": false,
          "internalType": "string",
          "name": "party",
          "type": "string"
        }
      ],
      "name": "CandidateAdded",
      "type": "event"
    },
    {
      "anonymous": false,
      "inputs": [
        {
          "indexed": true,
          "internalType": "address",
          "name": "voter",
          "type": "address"
        },
        {
          "indexed": true,
          "internalType": "uint256",
          "name": "candidateId",
          "type": "uint256"
        }
      ],
      "name": "Voted",
      "type": "event"
    },
    {
      "anonymous": false,
      "inputs": [
        {
          "indexed": false,
          "internalType": "address",
          "name": "voter",
          "type": "address"
        }
      ],
      "name": "VoterRegistered",
      "type": "event"
    },
    {
      "anonymous": false,
      "inputs": [
        {
          "indexed": false,
          "internalType": "bool",
          "name": "isOpen",
          "type": "bool"
        }
      ],
      "name": "VotingStatusChanged",
      "type": "event"
    },
    {
      "inputs": [],
      "name": "admin",
      "outputs": [
        {
          "internalType": "address",
          "name": "",
          "type": "address"
        }
      ],
      "stateMutability": "view",
      "type": "function",
      "constant": true
    },
    {
      "inputs": [
        {
          "internalType": "uint256",
          "name": "",
          "type": "uint256"
        }
      ],
      "name": "candidates",
      "outputs": [
        {
          "internalType": "string",
          "name": "name",
          "type": "string"
        },
        {
          "internalType": "string",
          "name": "party",
          "type": "string"
        },
        {
          "internalType": "uint256",
          "name": "voteCount",
          "type": "uint256"
        },
        {
          "internalType": "bool",
          "name": "isActive",
          "type": "bool"
        }
      ],
      "stateMutability": "view",
      "type": "function",
      "constant": true
    },
    {
      "inputs": [],
      "name": "totalVoters",
      "outputs": [
        {
          "internalType": "uint256",
          "name": "",
          "type": "uint256"
        }
      ],
      "stateMutability": "view",
      "type": "function",
      "constant": true
    },
    {
      "inputs": [],
      "name": "totalVotes",
      "outputs": [
        {
          "internalType": "uint256",
          "name": "",
          "type": "uint256"
        }
      ],
      "stateMutability": "view",
      "type": "function",
      "constant": true
    },
    {
      "inputs": [
        {
          "internalType": "address",
          "name": "",
          "type": "address"
        }
      ],
      "name": "voters",
      "outputs": [
        {
          "internalType": "bool",
          "name": "hasVoted",
          "type": "bool"
        },
        {
          "internalType": "uint256",
          "name": "votedFor",
          "type": "uint256"
        },
        {
          "internalType": "bool",
          "name": "isRegistered",
          "type": "bool"
        },
        {
          "internalType": "bytes32",
          "name": "zkProofHash",
          "type": "bytes32"
        }
      ],
      "stateMutability": "view",
      "type": "function",
      "constant": true
    },
    {
      "inputs": [],
      "name": "votingOpen",
      "outputs": [
        {
          "internalType": "bool",
          "name": "",
          "type": "bool"
        }
      ],
      "stateMutability": "view",
      "type": "function",
      "constant": true
    },
    {
      "inputs": [
        {
          "internalType": "string",
          "name": "_name",
          "type": "string"
        },
        {
          "internalType": "string",
          "name": "_party",
          "type": "string"
        }
      ],
      "name": "addCandidate",
      "outputs": [],
      "stateMutability": "nonpayable",
      "type": "function"
    },
    {
      "inputs": [
        {
          "internalType": "address",
          "name": "_voter",
          "type": "address"
        },
        {
          "internalType": "bytes32",
          "name": "_zkProofHash",
          "type": "bytes32"
        }
      ],
      "name": "registerVoter",
      "outputs": [],
      "stateMutability": "nonpayable",
      "type": "function"
    },
    {
      "inputs": [],
      "name": "startVoting",
      "outputs": [],
      "stateMutability": "nonpayable",
      "type": "function"
    },
    {
      "inputs": [],
      "name": "stopVoting",
      "outputs": [],
      "stateMutability": "nonpayable",
      "type": "function"
    },
    {
      "inputs": [
        {
          "internalType": "uint256",
          "name": "_candidateId",
          "type": "uint256"
        },
        {
          "internalType": "bytes32",
          "name": "_proofVerification",
          "type": "bytes32"
        }
      ],
      "name": "vote",
      "outputs": [],
      "stateMutability": "nonpayable",
      "type": "function"
    },
    {
      "inputs": [],
      "name": "getCandidateCount",
      "outputs": [
        {
          "internalType": "uint256",
          "name": "",
          "type": "uint256"
        }
      ],
      "stateMutability": "view",
      "type": "function",
      "constant": true
    },
    {
      "inputs": [
        {
          "internalType": "uint256",
          "name": "_candidateId",
          "type": "uint256"
        }
      ],
      "name": "getCandidate",
      "outputs": [
        {
          "internalType": "string",
          "name": "name",
          "type": "string"
        },
        {
          "internalType": "string",
          "name": "party",
          "type": "string"
        },
        {
          "internalType": "uint256",
          "name": "voteCount",
          "type": "uint256"
        },
        {
          "internalType": "bool",
          "name": "isActive",
          "type": "bool"
        }
      ],
      "stateMutability": "view",
      "type": "function",
      "constant": true
    },
    {
      "inputs": [],
      "name": "getVotingStats",
      "outputs": [
        {
          "internalType": "uint256",
          "name": "_totalVoters",
          "type": "uint256"
        },
        {
          "internalType": "uint256",
          "name": "_totalVotes",
          "type": "uint256"
        },
        {
          "internalType": "bool",
          "name": "_isOpen",
          "type": "bool"
        }
      ],
      "stateMutability": "view",
      "type": "function",
      "constant": true
    },
    {
      "inputs": [
        {
          "internalType": "uint256",
          "name": "_candidateId",
          "type": "uint256"
        }
      ],
      "name": "deactivateCandidate",
      "outputs": [],
      "stateMutability": "nonpayable",
      "type": "function"
    },
    {
      "inputs": [
        {
          "internalType": "uint256",
          "name": "_candidateId",
          "type": "uint256"
        }
      ],
      "name": "reactivateCandidate",
      "outputs": [],
      "stateMutability": "nonpayable",
      "type": "function"
    }
  ],
  "bytecode": "0x608060405234801561001057600080fd5b50336000806101000a81548173ffffffffffffffffffffffffffffffffffffffff021916908373ffffffffffffffffffffffffffffffffffffffff1602179055506000600360006101000a81548160ff02191690831515021790555060006004819055506000600581905550611eb98061008b6000396000f3fe608060405234801561001057600080fd5b50600436106101005760003560e01c806376804a0311610097578063a95824b411610066578063a95824b414610292578063f851a440146102b0578063fab2f86b146102ce578063fc6e1d76146102d857610100565b806376804a031461020757806397341d5914610227578063a3ec138d14610243578063a5cab3321461027657610100565b80633477ee2e116100d35780633477ee2e1461016757806335b8e8201461019a5780635f5300ff146101cd57806368bb8bb6146101eb57610100565b80630d15fd77146101055780631ec6b60a1461012357806326541b561461012d57806330a5634714610149575b600080fd5b61010d6102f4565b60405161011a9190611bc2565b60405180910390f35b61012b6102fa565b005b61014760048036038101906101429190611591565b61042d565b005b6101516105ae565b60405161015e9190611bc2565b60405180910390f35b610181600480360381019061017c91906115fd565b6105bb565b6040516101919493929190611a2f565b60405180910390f35b6101b460048036038101906101af91906115fd565b610718565b6040516101c49493929190611a2f565b60405180910390f35b6101d5610929565b6040516101e29190611bc2565b60405180910390f35b61020560048036038101906102009190611626565b61092f565b005b61020f610d62565b60405161021e93929190611bdd565b60405180910390f35b610241600480360381019061023c91906115fd565b610d88565b005b61025d6004803603810190610258919061152c565b610ec4565b60405161026d94939291906119b3565b60405180910390f35b610290600480360381019061028b91906115fd565b610f0e565b005b61029a61104a565b6040516102a79190611998565b60405180910390f35b6102b861105d565b6040516102c5919061197d565b60405180910390f35b6102d6611081565b005b6102f260048036038101906102ed9190611555565b6111b3565b005b60055481565b60008054906101000a900473ffffffffffffffffffffffffffffffffffffffff1673ffffffffffffffffffffffffffffffffffffffff163373ffffffffffffffffffffffffffffffffffffffff1614610388576040517f08c379a000000000000000000000000000000000000000000000000000000000815260040161037f90611b42565b60405180910390fd5b600360009054906101000a900460ff16156103d8576040517f08c379a00000000000000000000000000000000000000000000000000000000081526004016103cf90611b02565b60405180910390fd5b6001600360006101000a81548160ff0219169083151502179055507f9069a1a16ace751e8690f383e12f87b01e8488ba387e626810bd113fef0417f960016040516104239190611998565b60405180910390a1565b60008054906101000a900473ffffffffffffffffffffffffffffffffffffffff1673ffffffffffffffffffffffffffffffffffffffff163373ffffffffffffffffffffffffffffffffffffffff16146104bb576040517f08c379a00000000000000000000000000000000000000000000000000000000081526004016104b290611b42565b60405180910390fd5b600260405180608001604052808481526020018381526020016000815260200160011515815250908060018154018082558091505060019003906000526020600020906004020160009091909190915060008201518160000190805190602001906105279291906113e2565b5060208201518160010190805190602001906105449291906113e2565b506040820151816002015560608201518160030160006101000a81548160ff02191690831515021790555050507f6184463fde61a3e60869da6c5a223163f4b7548f805e17f865da2e8d3828d33782826040516105a29291906119f8565b60405180910390a15050565b6000600280549050905090565b600281815481106105cb57600080fd5b90600052602060002090600402016000915090508060000180546105ee90611d25565b80601f016020809104026020016040519081016040528092919081815260200182805461061a90611d25565b80156106675780601f1061063c57610100808354040283529160200191610667565b820191906000526020600020905b81548152906001019060200180831161064a57829003601f168201915b50505050509080600101805461067c90611d25565b80601f01602080910402602001604051908101604052809291908181526020018280546106a890611d25565b80156106f55780601f106106ca576101008083540402835291602001916106f5565b820191906000526020600020905b8154815290600101906020018083116106d857829003601f168201915b5050505050908060020154908060030160009054906101000a900460ff16905084565b6060806000806002805490508510610765576040517f08c379a000000000000000000000000000000000000000000000000000000000815260040161075c90611b82565b60405180910390fd5b6000600286815481106107a1577f4e487b7100000000000000000000000000000000000000000000000000000000600052603260045260246000fd5b90600052602060002090600402016040518060800160405290816000820180546107ca90611d25565b80601f01602080910402602001604051908101604052809291908181526020018280546107f690611d25565b80156108435780601f1061081857610100808354040283529160200191610843565b820191906000526020600020905b81548152906001019060200180831161082657829003601f168201915b5050505050815260200160018201805461085c90611d25565b80601f016020809104026020016040519081016040528092919081815260200182805461088890611d25565b80156108d55780601f106108aa576101008083540402835291602001916108d5565b820191906000526020600020905b8154815290600101906020018083116108b857829003601f168201915b50505050508152602001600282015481526020016003820160009054906101000a900460ff161515151581525050905080600001518160200151826040015183606001519450945094509450509193509193565b60045481565b600360009054906101000a900460ff1661097e576040517f08c379a000000000000000000000000000000000000000000000000000000000815260040161097590611aa2565b60405180910390fd5b600160003373ffffffffffffffffffffffffffffffffffffffff1673ffffffffffffffffffffffffffffffffffffffff16815260200190815260200160002060020160009054906101000a900460ff16610a0d576040517f08c379a0000000000000000000000000000000000000000000000000000000008152600401610a0490611b62565b60405180910390fd5b600160003373ffffffffffffffffffffffffffffffffffffffff1673ffffffffffffffffffffffffffffffffffffffff16815260200190815260200160002060000160009054906101000a900460ff1615610a9d576040517f08c379a0000000000000000000000000000000000000000000000000000000008152600401610a9490611b22565b60405180910390fd5b6002805490508210610ae4576040517f08c379a0000000000000000000000000000000000000000000000000000000008152600401610adb90611b82565b60405180910390fd5b60028281548110610b1e577f4e487b7100000000000000000000000000000000000000000000000000000000600052603260045260246000fd5b906000526020600020906004020160030160009054906101000a900460ff16610b7c576040517f08c379a0000000000000000000000000000000000000000000000000000000008152600401610b7390611ae2565b60405180910390fd5b80600160003373ffffffffffffffffffffffffffffffffffffffff1673ffffffffffffffffffffffffffffffffffffffff1681526020019081526020016000206003015414610c00576040517f08c379a0000000000000000000000000000000000000000000000000000000008152600401610bf790611ba2565b60405180910390fd5b60018060003373ffffffffffffffffffffffffffffffffffffffff1673ffffffffffffffffffffffffffffffffffffffff16815260200190815260200160002060000160006101000a81548160ff02191690831515021790555081600160003373ffffffffffffffffffffffffffffffffffffffff1673ffffffffffffffffffffffffffffffffffffffff1681526020019081526020016000206001018190555060028281548110610cdb577f4e487b7100000000000000000000000000000000000000000000000000000000600052603260045260246000fd5b90600052602060002090600402016002016000815480929190610cfd90611d57565b919050555060056000815480929190610d1590611d57565b9190505550813373ffffffffffffffffffffffffffffffffffffffff167f4d99b957a2bc29a30ebd96a7be8e68fe50a3c701db28a91436490b7d53870ca460405160405180910390a35050565b6000806000600454600554600360009054906101000a900460ff16925092509250909192565b60008054906101000a900473ffffffffffffffffffffffffffffffffffffffff1673ffffffffffffffffffffffffffffffffffffffff163373ffffffffffffffffffffffffffffffffffffffff1614610e16576040517f08c379a0000000000000000000000000000000000000000000000000000000008152600401610e0d90611b42565b60405180910390fd5b6002805490508110610e5d576040517f08c379a0000000000000000000000000000000000000000000000000000000008152600401610e5490611b82565b60405180910390fd5b600060028281548110610e99577f4e487b7100000000000000000000000000000000000000000000000000000000600052603260045260246000fd5b906000526020600020906004020160030160006101000a81548160ff02191690831515021790555050565b60016020528060005260406000206000915090508060000160009054906101000a900460ff16908060010154908060020160009054906101000a900460ff16908060030154905084565b60008054906101000a900473ffffffffffffffffffffffffffffffffffffffff1673ffffffffffffffffffffffffffffffffffffffff163373ffffffffffffffffffffffffffffffffffffffff1614610f9c576040517f08c379a0000000000000000000000000000000000000000000000000000000008152600401610f9390611b42565b60405180910390fd5b6002805490508110610fe3576040517f08c379a0000000000000000000000000000000000000000000000000000000008152600401610fda90611b82565b60405180910390fd5b60016002828154811061101f577f4e487b7100000000000000000000000000000000000000000000000000000000600052603260045260246000fd5b906000526020600020906004020160030160006101000a81548160ff02191690831515021790555050565b600360009054906101000a900460ff1681565b60008054906101000a900473ffffffffffffffffffffffffffffffffffffffff1681565b60008054906101000a900473ffffffffffffffffffffffffffffffffffffffff1673ffffffffffffffffffffffffffffffffffffffff163373ffffffffffffffffffffffffffffffffffffffff161461110f576040517f08c379a000000000000000000000000000000000000000000000000000000000815260040161110690611b42565b60405180910390fd5b600360009054906101000a900460ff1661115e576040517f08c379a000000000000000000000000000000000000000000000000000000000815260040161115590611a82565b60405180910390fd5b6000600360006101000a81548160ff0219169083151502179055507f9069a1a16ace751e8690f383e12f87b01e8488ba387e626810bd113fef0417f960006040516111a99190611998565b60405180910390a1565b60008054906101000a900473ffffffffffffffffffffffffffffffffffffffff1673ffffffffffffffffffffffffffffffffffffffff163373ffffffffffffffffffffffffffffffffffffffff1614611241576040517f08c379a000000000000000000000000000000000000000000000000000000000815260040161123890611b42565b60405180910390fd5b600160008373ffffffffffffffffffffffffffffffffffffffff1673ffffffffffffffffffffffffffffffffffffffff16815260200190815260200160002060020160009054906101000a900460ff16156112d1576040517f08c379a00000000000000000000000000000000000000000000000000000000081526004016112c890611ac2565b60405180910390fd5b60405180608001604052806000151581526020016000815260200160011515815260200182815250600160008473ffffffffffffffffffffffffffffffffffffffff1673ffffffffffffffffffffffffffffffffffffffff16815260200190815260200160002060008201518160000160006101000a81548160ff0219169083151502179055506020820151816001015560408201518160020160006101000a81548160ff02191690831515021790555060608201518160030155905050600460008154809291906113a290611d57565b91905055507fb6be2187d059cc2a55fe29e0e503b566e1e0f8c8780096e185429350acffd3dd826040516113d6919061197d565b60405180910390a15050565b8280546113ee90611d25565b90600052602060002090601f0160209004810192826114105760008555611457565b82601f1061142957805160ff1916838001178555611457565b82800160010185558215611457579182015b8281111561145657825182559160200191906001019061143b565b5b5090506114649190611468565b5090565b5b80821115611481576000816000905550600101611469565b5090565b600061149861149384611c45565b611c14565b9050828152602081018484840111156114b057600080fd5b6114bb848285611ce3565b509392505050565b6000813590506114d281611e3e565b92915050565b6000813590506114e781611e55565b92915050565b600082601f8301126114fe57600080fd5b813561150e848260208601611485565b91505092915050565b60008135905061152681611e6c565b92915050565b60006020828403121561153e57600080fd5b600061154c848285016114c3565b91505092915050565b6000806040838503121561156857600080fd5b6000611576858286016114c3565b9250506020611587858286016114d8565b9150509250929050565b600080604083850312156115a457600080fd5b600083013567ffffffffffffffff8111156115be57600080fd5b6115ca858286016114ed565b925050602083013567ffffffffffffffff8111156115e757600080fd5b6115f3858286016114ed565b9150509250929050565b60006020828403121561160f57600080fd5b600061161d84828501611517565b91505092915050565b6000806040838503121561163957600080fd5b600061164785828601611517565b9250506020611658858286016114d8565b9150509250929050565b61166b81611c91565b82525050565b61167a81611ca3565b82525050565b61168981611caf565b82525050565b600061169a82611c75565b6116a48185611c80565b93506116b4818560208601611cf2565b6116bd81611e2d565b840191505092915050565b60006116d5601883611c80565b91507f566f74696e6720697320616c726561647920636c6f73656400000000000000006000830152602082019050919050565b6000611715601283611c80565b91507f566f74696e67206973206e6f74206f70656e00000000000000000000000000006000830152602082019050919050565b6000611755601883611c80565b91507f566f74657220616c7265616479207265676973746572656400000000000000006000830152602082019050919050565b6000611795601783611c80565b91507f43616e646964617465206973206e6f74206163746976650000000000000000006000830152602082019050919050565b60006117d5601683611c80565b91507f566f74696e6720697320616c7265616479206f70656e000000000000000000006000830152602082019050919050565b6000611815601783611c80565b91507f566f7465722068617320616c726561647920766f7465640000000000000000006000830152602082019050919050565b6000611855602283611c80565b91507f4f6e6c792061646d696e2063616e20706572666f726d2074686973206163746960008301527f6f6e0000000000000000000000000000000000000000000000000000000000006020830152604082019050919050565b60006118bb601783611c80565b91507f566f746572206973206e6f7420726567697374657265640000000000000000006000830152602082019050919050565b60006118fb601483611c80565b91507f496e76616c69642063616e6469646174652049440000000000000000000000006000830152602082019050919050565b600061193b601283611c80565b91507f496e76616c696420766f74652070726f6f6600000000000000000000000000006000830152602082019050919050565b61197781611cd9565b82525050565b60006020820190506119926000830184611662565b92915050565b60006020820190506119ad6000830184611671565b92915050565b60006080820190506119c86000830187611671565b6119d5602083018661196e565b6119e26040830185611671565b6119ef6060830184611680565b95945050505050565b60006040820190508181036000830152611a12818561168f565b90508181036020830152611a26818461168f565b90509392505050565b60006080820190508181036000830152611a49818761168f565b90508181036020830152611a5d818661168f565b9050611a6c604083018561196e565b611a796060830184611671565b95945050505050565b60006020820190508181036000830152611a9b816116c8565b9050919050565b60006020820190508181036000830152611abb81611708565b9050919050565b60006020820190508181036000830152611adb81611748565b9050919050565b60006020820190508181036000830152611afb81611788565b9050919050565b60006020820190508181036000830152611b1b816117c8565b9050919050565b60006020820190508181036000830152611b3b81611808565b9050919050565b60006020820190508181036000830152611b5b81611848565b9050919050565b60006020820190508181036000830152611b7b816118ae565b9050919050565b60006020820190508181036000830152611b9b816118ee565b9050919050565b60006020820190508181036000830152611bbb8161192e565b9050919050565b6000602082019050611bd7600083018461196e565b92915050565b6000606082019050611bf2600083018661196e565b611bff602083018561196e565b611c0c6040830184611671565b949350505050565b6000604051905081810181811067ffffffffffffffff82111715611c3b57611c3a611dfe565b5b8060405250919050565b600067ffffffffffffffff821115611c6057611c5f611dfe565b5b601f19601f8301169050602081019050919050565b600081519050919050565b600082825260208201905092915050565b6000611c9c82611cb9565b9050919050565b60008115159050919050565b6000819050919050565b600073ffffffffffffffffffffffffffffffffffffffff82169050919050565b6000819050919050565b82818337600083830152505050565b60005b83811015611d10578082015181840152602081019050611cf5565b83811115611d1f576000848401525b50505050565b60006002820490506001821680611d3d57607f821691505b60208210811415611d5157611d50611dcf565b5b50919050565b6000611d6282611cd9565b91507fffffffffffffffffffffffffffffffffffffffffffffffffffffffffffffffff821415611d9557611d94611da0565b5b600182019050919050565b7f4e487b7100000000000000000000000000000000000000000000000000000000600052601160045260246000fd5b7f4e487b7100000000000000000000000000000000000000000000000000000000600052602260045260246000fd5b7f4e487b7100000000000000000000000000000000000000000000000000000000600052604160045260246000fd5b6000601f19601f8301169050919050565b611e4781611c91565b8114611e5257600080fd5b50565b611e5e81611caf565b8114611e6957600080fd5b50565b611e7581611cd9565b8114611e8057600080fd5b5056fea26469706673582212209deccd684ac40d5f7511e0bd617e2d07ee66eafc053691491b8e991785c0a79964736f6c63430008000033",
  "immutableReferences": {},
  "source": "// SPDX-License-Identifier: MIT\npragma solidity ^0.8.0;\n\ncontract VotingSystem {\n    struct Candidate {\n        string name;\n        string party;\n        uint256 voteCount;\n        bool isActive;\n    }\n    \n    struct Voter {\n        bool hasVoted;\n        uint256 votedFor;\n        bool isRegistered;\n        bytes32 zkProofHash;\n    }\n    \n    address public admin;\n    mapping(address => Voter) public voters;\n    Candidate[] public candidates;\n    bool public votingOpen;\n    uint256 public totalVoters;\n    uint256 public totalVotes;\n    \n    event CandidateAdded(string name, string party);\n    event VoterRegistered(address voter);\n    event Voted(address indexed voter, uint256 indexed candidateId);\n    event VotingStatusChanged(bool isOpen);\n    \n    modifier onlyAdmin() {\n        require(msg.sender == admin, \"Only admin can perform this action\");\n        _;\n    }\n    \n    modifier votingIsOpen() {\n        require(votingOpen, \"Voting is not open\");\n        _;\n    }\n\n    modifier onlyRegisteredVoter() {\n        require(voters[msg.sender].isRegistered, \"Voter is not registered\");\n        _;\n    }\n    \n    constructor() {\n        admin = msg.sender;\n        votingOpen = false;\n        totalVoters = 0;\n        totalVotes = 0;\n    }\n    \n    function addCandidate(string memory _name, string memory _party) public onlyAdmin {\n        candidates.push(Candidate({\n            name: _name,\n            party: _party,\n            voteCount: 0,\n            isActive: true\n        }));\n        emit CandidateAdded(_name, _party);\n    }\n\n    function registerVoter(address _voter, bytes32 _zkProofHash) public onlyAdmin {\n        require(!voters[_voter].isRegistered, \"Voter already registered\");\n        voters[_voter] = Voter({\n            hasVoted: false,\n            votedFor: 0,\n            isRegistered: true,\n            zkProofHash: _zkProofHash\n        });\n        totalVoters++;\n        emit VoterRegistered(_voter);\n    }\n    \n    function startVoting() public onlyAdmin {\n        require(!votingOpen, \"Voting is already open\");\n        votingOpen = true;\n        emit VotingStatusChanged(true);\n    }\n    \n    function stopVoting() public onlyAdmin {\n        require(votingOpen, \"Voting is already closed\");\n        votingOpen = false;\n        emit VotingStatusChanged(false);\n    }\n    \n    function vote(uint256 _candidateId, bytes32 _proofVerification) public votingIsOpen onlyRegisteredVoter {\n        require(!voters[msg.sender].hasVoted, \"Voter has already voted\");\n        require(_candidateId < candidates.length, \"Invalid candidate ID\");\n        require(candidates[_candidateId].isActive, \"Candidate is not active\");\n        require(voters[msg.sender].zkProofHash == _proofVerification, \"Invalid vote proof\");\n        \n        voters[msg.sender].hasVoted = true;\n        voters[msg.sender].votedFor = _candidateId;\n        candidates[_candidateId].voteCount++;\n        totalVotes++;\n        \n        emit Voted(msg.sender, _candidateId);\n    }\n    \n    function getCandidateCount() public view returns (uint256) {\n        return candidates.length;\n    }\n    \n    function getCandidate(uint256 _candidateId) public view returns (\n        string memory name,\n        string memory party,\n        uint256 voteCount,\n        bool isActive\n    ) {\n        require(_candidateId < candidates.length, \"Invalid candidate ID\");\n        Candidate memory candidate = candidates[_candidateId];\n        return (\n            candidate.name,\n            candidate.party,\n            candidate.voteCount,\n            candidate.isActive\n        );\n    }\n\n    function getVotingStats() public view returns (\n        uint256 _totalVoters,\n        uint256 _totalVotes,\n        bool _isOpen\n    ) {\n        return (totalVoters, totalVotes, votingOpen);\n    }\n\n    function deactivateCandidate(uint256 _candidateId) public onlyAdmin {\n        require(_candidateId < candidates.length, \"Invalid candidate ID\");\n        candidates[_candidateId].isActive = false;\n    }\n\n    function reactivateCandidate(uint256 _candidateId) public onlyAdmin {\n        require(_candidateId < candidates.length, \"Invalid candidate ID\");\n        candidates[_candidateId].isActive = true;\n    }\n}\n",
  "sourcePath": "/Users/vonikreus/Desktop/Hackathon/ovoz-demokratiya-markazi/blockchain/contracts/VotingSystem.sol",
  "compiler": {
    "name": "solc",
    "version": "0.8.0+commit.c7dfd78e.Emscripten.clang"
  },
  "schemaVersion": "3.4.13",
  "updatedAt": "2025-04-28T05:38:00.012Z",
  "networkType": "ethereum",
  "devdoc": {
    "kind": "dev",
    "methods": {},
    "version": 1
  },
  "userdoc": {
    "kind": "user",
    "methods": {},
    "version": 1
  }
}