{
  "contractName": "VotingSystem",
  "abi": [
    {
      "inputs": [],
      "stateMutability": "nonpayable",
      "type": "constructor"
    },
    {
      "anonymous": false,
      "inputs": [
        {
          "indexed": false,
          "internalType": "string",
          "name": "name",
          "type": "string"
        }
      ],
      "name": "CandidateAdded",
      "type": "event"
    },
    {
      "anonymous": false,
      "inputs": [
        {
          "indexed": false,
          "internalType": "address",
          "name": "voter",
          "type": "address"
        },
        {
          "indexed": false,
          "internalType": "uint256",
          "name": "candidateId",
          "type": "uint256"
        }
      ],
      "name": "Voted",
      "type": "event"
    },
    {
      "anonymous": false,
      "inputs": [
        {
          "indexed": false,
          "internalType": "bool",
          "name": "isOpen",
          "type": "bool"
        }
      ],
      "name": "VotingStatusChanged",
      "type": "event"
    },
    {
      "inputs": [],
      "name": "admin",
      "outputs": [
        {
          "internalType": "address",
          "name": "",
          "type": "address"
        }
      ],
      "stateMutability": "view",
      "type": "function",
      "constant": true
    },
    {
      "inputs": [
        {
          "internalType": "uint256",
          "name": "",
          "type": "uint256"
        }
      ],
      "name": "candidates",
      "outputs": [
        {
          "internalType": "string",
          "name": "name",
          "type": "string"
        },
        {
          "internalType": "uint256",
          "name": "voteCount",
          "type": "uint256"
        }
      ],
      "stateMutability": "view",
      "type": "function",
      "constant": true
    },
    {
      "inputs": [
        {
          "internalType": "address",
          "name": "",
          "type": "address"
        }
      ],
      "name": "voters",
      "outputs": [
        {
          "internalType": "bool",
          "name": "hasVoted",
          "type": "bool"
        },
        {
          "internalType": "uint256",
          "name": "votedFor",
          "type": "uint256"
        }
      ],
      "stateMutability": "view",
      "type": "function",
      "constant": true
    },
    {
      "inputs": [],
      "name": "votingOpen",
      "outputs": [
        {
          "internalType": "bool",
          "name": "",
          "type": "bool"
        }
      ],
      "stateMutability": "view",
      "type": "function",
      "constant": true
    },
    {
      "inputs": [
        {
          "internalType": "string",
          "name": "_name",
          "type": "string"
        }
      ],
      "name": "addCandidate",
      "outputs": [],
      "stateMutability": "nonpayable",
      "type": "function"
    },
    {
      "inputs": [],
      "name": "startVoting",
      "outputs": [],
      "stateMutability": "nonpayable",
      "type": "function"
    },
    {
      "inputs": [],
      "name": "stopVoting",
      "outputs": [],
      "stateMutability": "nonpayable",
      "type": "function"
    },
    {
      "inputs": [
        {
          "internalType": "uint256",
          "name": "_candidateId",
          "type": "uint256"
        }
      ],
      "name": "vote",
      "outputs": [],
      "stateMutability": "nonpayable",
      "type": "function"
    },
    {
      "inputs": [],
      "name": "getCandidateCount",
      "outputs": [
        {
          "internalType": "uint256",
          "name": "",
          "type": "uint256"
        }
      ],
      "stateMutability": "view",
      "type": "function",
      "constant": true
    },
    {
      "inputs": [
        {
          "internalType": "uint256",
          "name": "_candidateId",
          "type": "uint256"
        }
      ],
      "name": "getCandidate",
      "outputs": [
        {
          "internalType": "string",
          "name": "name",
          "type": "string"
        },
        {
          "internalType": "uint256",
          "name": "voteCount",
          "type": "uint256"
        }
      ],
      "stateMutability": "view",
      "type": "function",
      "constant": true
    }
  ],
  "bytecode": "0x608060405234801561001057600080fd5b50336000806101000a81548173ffffffffffffffffffffffffffffffffffffffff021916908373ffffffffffffffffffffffffffffffffffffffff1602179055506000600360006101000a81548160ff0219169083151502179055506111088061007b6000396000f3fe608060405234801561001057600080fd5b506004361061009e5760003560e01c8063462e91ec11610066578063462e91ec14610149578063a3ec138d14610165578063a95824b414610196578063f851a440146101b4578063fab2f86b146101d25761009e565b80630121b93f146100a35780631ec6b60a146100bf57806330a56347146100c95780633477ee2e146100e757806335b8e82014610118575b600080fd5b6100bd60048036038101906100b89190610b5a565b6101dc565b005b6100c7610440565b005b6100d1610523565b6040516100de9190610e69565b60405180910390f35b61010160048036038101906100fc9190610b5a565b610530565b60405161010f929190610db9565b60405180910390f35b610132600480360381019061012d9190610b5a565b6105ec565b604051610140929190610db9565b60405180910390f35b610163600480360381019061015e9190610b19565b61073e565b005b61017f600480360381019061017a9190610af0565b610870565b60405161018d929190610d6e565b60405180910390f35b61019e6108a1565b6040516101ab9190610d53565b60405180910390f35b6101bc6108b4565b6040516101c99190610d0f565b60405180910390f35b6101da6108d8565b005b600360009054906101000a900460ff1661022b576040517f08c379a000000000000000000000000000000000000000000000000000000000815260040161022290610de9565b60405180910390fd5b600160003373ffffffffffffffffffffffffffffffffffffffff1673ffffffffffffffffffffffffffffffffffffffff16815260200190815260200160002060000160009054906101000a900460ff16156102bb576040517f08c379a00000000000000000000000000000000000000000000000000000000081526004016102b290610e09565b60405180910390fd5b6002805490508110610302576040517f08c379a00000000000000000000000000000000000000000000000000000000081526004016102f990610e49565b60405180910390fd5b60018060003373ffffffffffffffffffffffffffffffffffffffff1673ffffffffffffffffffffffffffffffffffffffff16815260200190815260200160002060000160006101000a81548160ff02191690831515021790555080600160003373ffffffffffffffffffffffffffffffffffffffff1673ffffffffffffffffffffffffffffffffffffffff16815260200190815260200160002060010181905550600281815481106103dd577f4e487b7100000000000000000000000000000000000000000000000000000000600052603260045260246000fd5b906000526020600020906002020160010160008154809291906103ff90610fbd565b91905055507f4d99b957a2bc29a30ebd96a7be8e68fe50a3c701db28a91436490b7d53870ca43382604051610435929190610d2a565b60405180910390a150565b60008054906101000a900473ffffffffffffffffffffffffffffffffffffffff1673ffffffffffffffffffffffffffffffffffffffff163373ffffffffffffffffffffffffffffffffffffffff16146104ce576040517f08c379a00000000000000000000000000000000000000000000000000000000081526004016104c590610e29565b60405180910390fd5b6001600360006101000a81548160ff0219169083151502179055507f9069a1a16ace751e8690f383e12f87b01e8488ba387e626810bd113fef0417f960016040516105199190610d53565b60405180910390a1565b6000600280549050905090565b6002818154811061054057600080fd5b906000526020600020906002020160009150905080600001805461056390610f8b565b80601f016020809104026020016040519081016040528092919081815260200182805461058f90610f8b565b80156105dc5780601f106105b1576101008083540402835291602001916105dc565b820191906000526020600020905b8154815290600101906020018083116105bf57829003601f168201915b5050505050908060010154905082565b606060006002805490508310610637576040517f08c379a000000000000000000000000000000000000000000000000000000000815260040161062e90610e49565b60405180910390fd5b600060028481548110610673577f4e487b7100000000000000000000000000000000000000000000000000000000600052603260045260246000fd5b906000526020600020906002020160405180604001604052908160008201805461069c90610f8b565b80601f01602080910402602001604051908101604052809291908181526020018280546106c890610f8b565b80156107155780601f106106ea57610100808354040283529160200191610715565b820191906000526020600020905b8154815290600101906020018083116106f857829003601f168201915b505050505081526020016001820154815250509050806000015181602001519250925050915091565b60008054906101000a900473ffffffffffffffffffffffffffffffffffffffff1673ffffffffffffffffffffffffffffffffffffffff163373ffffffffffffffffffffffffffffffffffffffff16146107cc576040517f08c379a00000000000000000000000000000000000000000000000000000000081526004016107c390610e29565b60405180910390fd5b600260405180604001604052808381526020016000815250908060018154018082558091505060019003906000526020600020906002020160009091909190915060008201518160000190805190602001906108299291906109bb565b506020820151816001015550507ff29562dad1599aea0ebb142466120aab326d5efa8f839df82a9c064bf78e8938816040516108659190610d97565b60405180910390a150565b60016020528060005260406000206000915090508060000160009054906101000a900460ff16908060010154905082565b600360009054906101000a900460ff1681565b60008054906101000a900473ffffffffffffffffffffffffffffffffffffffff1681565b60008054906101000a900473ffffffffffffffffffffffffffffffffffffffff1673ffffffffffffffffffffffffffffffffffffffff163373ffffffffffffffffffffffffffffffffffffffff1614610966576040517f08c379a000000000000000000000000000000000000000000000000000000000815260040161095d90610e29565b60405180910390fd5b6000600360006101000a81548160ff0219169083151502179055507f9069a1a16ace751e8690f383e12f87b01e8488ba387e626810bd113fef0417f960006040516109b19190610d53565b60405180910390a1565b8280546109c790610f8b565b90600052602060002090601f0160209004810192826109e95760008555610a30565b82601f10610a0257805160ff1916838001178555610a30565b82800160010185558215610a30579182015b82811115610a2f578251825591602001919060010190610a14565b5b509050610a3d9190610a41565b5090565b5b80821115610a5a576000816000905550600101610a42565b5090565b6000610a71610a6c84610eb5565b610e84565b905082815260208101848484011115610a8957600080fd5b610a94848285610f49565b509392505050565b600081359050610aab816110a4565b92915050565b600082601f830112610ac257600080fd5b8135610ad2848260208601610a5e565b91505092915050565b600081359050610aea816110bb565b92915050565b600060208284031215610b0257600080fd5b6000610b1084828501610a9c565b91505092915050565b600060208284031215610b2b57600080fd5b600082013567ffffffffffffffff811115610b4557600080fd5b610b5184828501610ab1565b91505092915050565b600060208284031215610b6c57600080fd5b6000610b7a84828501610adb565b91505092915050565b610b8c81610f01565b82525050565b610b9b81610f13565b82525050565b6000610bac82610ee5565b610bb68185610ef0565b9350610bc6818560208601610f58565b610bcf81611093565b840191505092915050565b6000610be7601283610ef0565b91507f566f74696e67206973206e6f74206f70656e00000000000000000000000000006000830152602082019050919050565b6000610c27601783610ef0565b91507f566f7465722068617320616c726561647920766f7465640000000000000000006000830152602082019050919050565b6000610c67602283610ef0565b91507f4f6e6c792061646d696e2063616e20706572666f726d2074686973206163746960008301527f6f6e0000000000000000000000000000000000000000000000000000000000006020830152604082019050919050565b6000610ccd601483610ef0565b91507f496e76616c69642063616e6469646174652049440000000000000000000000006000830152602082019050919050565b610d0981610f3f565b82525050565b6000602082019050610d246000830184610b83565b92915050565b6000604082019050610d3f6000830185610b83565b610d4c6020830184610d00565b9392505050565b6000602082019050610d686000830184610b92565b92915050565b6000604082019050610d836000830185610b92565b610d906020830184610d00565b9392505050565b60006020820190508181036000830152610db18184610ba1565b905092915050565b60006040820190508181036000830152610dd38185610ba1565b9050610de26020830184610d00565b9392505050565b60006020820190508181036000830152610e0281610bda565b9050919050565b60006020820190508181036000830152610e2281610c1a565b9050919050565b60006020820190508181036000830152610e4281610c5a565b9050919050565b60006020820190508181036000830152610e6281610cc0565b9050919050565b6000602082019050610e7e6000830184610d00565b92915050565b6000604051905081810181811067ffffffffffffffff82111715610eab57610eaa611064565b5b8060405250919050565b600067ffffffffffffffff821115610ed057610ecf611064565b5b601f19601f8301169050602081019050919050565b600081519050919050565b600082825260208201905092915050565b6000610f0c82610f1f565b9050919050565b60008115159050919050565b600073ffffffffffffffffffffffffffffffffffffffff82169050919050565b6000819050919050565b82818337600083830152505050565b60005b83811015610f76578082015181840152602081019050610f5b565b83811115610f85576000848401525b50505050565b60006002820490506001821680610fa357607f821691505b60208210811415610fb757610fb6611035565b5b50919050565b6000610fc882610f3f565b91507fffffffffffffffffffffffffffffffffffffffffffffffffffffffffffffffff821415610ffb57610ffa611006565b5b600182019050919050565b7f4e487b7100000000000000000000000000000000000000000000000000000000600052601160045260246000fd5b7f4e487b7100000000000000000000000000000000000000000000000000000000600052602260045260246000fd5b7f4e487b7100000000000000000000000000000000000000000000000000000000600052604160045260246000fd5b6000601f19601f8301169050919050565b6110ad81610f01565b81146110b857600080fd5b50565b6110c481610f3f565b81146110cf57600080fd5b5056fea264697066735822122039a5107839fe65ffc97b9c14060e1d2b83023067d07d638972981b1fe5b8eadb64736f6c63430008000033",
  "immutableReferences": {},
  "source": "// SPDX-License-Identifier: MIT\npragma solidity ^0.8.0;\n\ncontract VotingSystem {\n    struct Candidate {\n        string name;\n        uint256 voteCount;\n    }\n    \n    struct Voter {\n        bool hasVoted;\n        uint256 votedFor;\n    }\n    \n    address public admin;\n    mapping(address => Voter) public voters;\n    Candidate[] public candidates;\n    bool public votingOpen;\n    \n    event CandidateAdded(string name);\n    event Voted(address voter, uint256 candidateId);\n    event VotingStatusChanged(bool isOpen);\n    \n    modifier onlyAdmin() {\n        require(msg.sender == admin, \"Only admin can perform this action\");\n        _;\n    }\n    \n    modifier votingIsOpen() {\n        require(votingOpen, \"Voting is not open\");\n        _;\n    }\n    \n    constructor() {\n        admin = msg.sender;\n        votingOpen = false;\n    }\n    \n    function addCandidate(string memory _name) public onlyAdmin {\n        candidates.push(Candidate({\n            name: _name,\n            voteCount: 0\n        }));\n        emit CandidateAdded(_name);\n    }\n    \n    function startVoting() public onlyAdmin {\n        votingOpen = true;\n        emit VotingStatusChanged(true);\n    }\n    \n    function stopVoting() public onlyAdmin {\n        votingOpen = false;\n        emit VotingStatusChanged(false);\n    }\n    \n    function vote(uint256 _candidateId) public votingIsOpen {\n        require(!voters[msg.sender].hasVoted, \"Voter has already voted\");\n        require(_candidateId < candidates.length, \"Invalid candidate ID\");\n        \n        voters[msg.sender].hasVoted = true;\n        voters[msg.sender].votedFor = _candidateId;\n        candidates[_candidateId].voteCount++;\n        \n        emit Voted(msg.sender, _candidateId);\n    }\n    \n    function getCandidateCount() public view returns (uint256) {\n        return candidates.length;\n    }\n    \n    function getCandidate(uint256 _candidateId) public view returns (string memory name, uint256 voteCount) {\n        require(_candidateId < candidates.length, \"Invalid candidate ID\");\n        Candidate memory candidate = candidates[_candidateId];\n        return (candidate.name, candidate.voteCount);\n    }\n}\n",
  "sourcePath": "/Users/vonikreus/Desktop/Hackathon/ovoz-demokratiya-markazi/blockchain/contracts/VotingSystem.sol",
  "compiler": {
    "name": "solc",
    "version": "0.8.0+commit.c7dfd78e.Emscripten.clang"
  },
  "schemaVersion": "3.4.13",
  "updatedAt": "2025-04-27T12:58:56.467Z",
  "networkType": "ethereum",
  "devdoc": {
    "kind": "dev",
    "methods": {},
    "version": 1
  },
  "userdoc": {
    "kind": "user",
    "methods": {},
    "version": 1
  }
}